:10000000250064001B0C24001B0C0F09300C24007D
:100010003E0C0F09A304B90A84016000A402840104
:100020001F0E43070C0A0400000864003600080C89
:10003000A405360064001607D20B090CD30B64002C
:100040003A00080CA40536006400FA07C40B060544
:10005000C50B3F0C07000600470C020064000904B2
:10006000C904E90468046B04CC04EC04040C260005
:10007000080C2700380C0600340C07000008040C9C
:1000800064002600080C2700380C0600340C07001A
:100090000602030000083F0C0700180C060064006D
:0200A000000856
:1000D000640037004604A4053C007D00BC03BD035A
:1000E000F00C7D011C020F0E3D01F00C7C0113028F
:1000F0006400380079000304780379031802A4052A
:100100003C0164001902A4053D01680CA3041F0909
:10011000A4051D02A3041F09A4051C02A3041F09B2
:10012000000CA3041F09000CA3041F09000CA30466
:100130001F09000CA3041F09000CA3041F091602C9
:10014000A305010A64004604570CA3041F09000C10
:10015000A3041F09A3041C02A4053500640046057E
:10016000A405F507A20A150264003C001602A305C7
:10017000010A700CA405C4043A00170C3B00FF0CE4
:10018000FA010307FB001B021A01FF0C4307C00A18
:100190003000A3042909A304A4057300E306610B3E
:1001A0001A0C64003600A20A1C02A40532003C0CA2
:1001B00072011202140F4307DF0A030CE40A120251
:1001C0001C0F4307E60A0F0C3E00E80A7E00BE0241
:1001D0001C0C64003600000C680A000CA3041F0904
:1001E0001C02A4053100000CA3041F09A3041C0277
:1001F000A4053200D102000B1202A50F4306020B28
:100200007F00090B000CA3041F09A3041C02A40512
:100210003F0064004605A405D0031F0B9F030F0E8B
:100220005F015E0131007200180BB202030431035A
:10023000310243061F0B1107150B1202300090020A
:1002400043065D0BB00370037003C00C7001020C19
:10025000F001640067041E0C3600A4051002680A51
:100260006705E70CA40534007E0C3800010C39004A
:10027000FF0C30007600F6023B0B080C36006400E1
:100280002605270426048707470B0705480B0704A4
:100290002705A405F6023F0B34024307530B38022F
:1002A0004306F900F800F4023D0B19021801430758
:1002B0003D0B6400270407044605A3043F09A3047B
:1002C000C90AE304A3044B09A304FF0CA4053700E7
:1002D00064007B051B045B044707680B510CA304F7
:1002E0001509A3041C02A405320064005B067C0B04
:1002F000200C3200A305A20A47067C0B1B06C90A84
:10030000680B64003B07C10BA405B10371037103C3
:10031000C00C7101B102FC0C72011202300F4307D4
:10032000970B260C64003600A4051102680A260CFF
:1003300064003600A4051102A3055D0AA304150993
:100340001C02A4053100A3041F09A304B50BA405D6
:100350001202300F000C43079E0BA3041F091C025E
:10036000A4053100A3041509A304A4053102430622
:10037000BC0B64005B07A70B64004605280C360025
:10038000A20A1502A305010A0604260503047A033E
:10039000260487061A05A405F602240A64001A0238
:1003A0003C000008080C2700030436034707DA0B5B
:1003B0005B07DD0B5B057C0000082707D60B0706F3
:1003C000F605380C06003C0C07007B06EA0BA4057A
:1003D0001702EB0BFF0CA405C4043500F502EE0B6D
:1003E0003F0C0700180C060064004707F90B2706AE
:1003F000F40BA405F6021A0A640016023C00000879
:1004000011023100B102220056084208580845087E
:1004100031087808200846086C08610873086808E5
:100420002008460857082008760831082E083008AA
:1004300032080008A304D40AA304ED0AA304300B75
:10044000A3047C0BA305900AA3059F0AA304A70B92
:10045000A304C10BA305020BA3051C0BA305430BAF
:10046000A3055C0BA305610BA305920BA305A80BC9
:04047000A305CC0B09
:1004BA00640037004604A4053C007D00BC03BD036C
:1004CA00F00C7D011C020F0E3D01F00C7C011302A1
:1004DA006400380079000304780379031802A4053C
:1004EA003C0164001902A4053D01820CA3041F0902
:1004FA00A4051D02A3041F09A4051C02A3041F09C5
:10050A00000CA3041F091602A305010A220C6400A9
:10051A003600000C5D0A010CA3041F09A50CA304F4
:10052A001F09A4051F02A3041F094605240C36004F
:10053A00A304A20A1502A305010A64007B04E70CBE
:10054A00A40534007E0C3800010C39001202030E97
:10055A00310064003300010C3C00000C7D00B30242
:10056A00B90A03047C037D03F302B60AA4051F0239
:10057A0064007C017D00A4051E0264007C017D00EC
:10058A001D021C014306CB0A3B05CD0B3B04CD0BD8
:10059A00A4051E02A3041509A4051F02A304150934
:1005AA00A305FB0B7B05000CA3041509A3051C027C
:1005BA00A405310064005B06FB0BA4053700FB0BA6
:1005CA00010CA3041509A4057100A405B102D10008
:1005DA0064003300040CD301A3050309A30415091D
:1005EA00A3055B06FB0B160CA40591000307EA0A98
:1005FA00FB0B2A0C3500A304810BFB0B3B07FB0BFF
:10060A00A405B10371037103C00C7101020CF1015D
:10061A002C0C64003600A4051102A304680A3802EF
:10062A004306F900F800270B64005B062D0B000C4B
:10063A00A3041F091C02A3041509A305A405340277
:10064A004306140BF402190B190218014307190B7C
:10065A0064004605FB0B110C3300A405110264006B
:10066A003C00BC023A0B03047303FC02380B53022E
:10067A00A4057F012E0C640035008B0AA405120222
:10068A00200F4306FB0BB10371037103C00C710108
:10069A00020CF1017A007B00A4051B021A01430730
:1006AA006D0B64004605300C3600A304A20A320C16
:1006BA003600A40511025D0AA405B3021302070E4F
:1006CA004307690B7300B102080C3A00010C3B00A6
:1006DA00000CA30415091C02A3041F09A305A40501
:1006EA003A024306FB00FA0034024307800B380241
:1006FA004306F900F800F402860B190218014306B2
:10070A00890B64005B07510B64004605A40573005E
:10071A00340C64003600A304A20A5B06FB0B010C2E
:10072A003300A4051202030E64003C00BC029F0BB6
:10073A0003047303FC029D0B1302A4053F01360C4C
:10074A00640035008B0AFB0B3B07FB0BA405110267
:10075A00300064001B05FB0B3B07FB0B100C33003E
:10076A00A405110264003C00BC02BD0B0304730320
:10077A00FC02BB0B13023400A4051F020F0E640017
:10078A001401A4053F00380C640035008B0AFB0BEA
:10079A00A4051202FC0E64003E007F00F70B1E0245
:1007AA00100F4306AF0B040F4306CD0A0C0F430686
:1007BA00E50A040F4306D70A3C0F4306300B040F21
:1007CA004306A90B0C0F4306B10B180F4306FE0A8A
:1007DA00040F4306FE0A740F4306030B040F430675
:1007EA00300BFB0B1F02000F4306D40B64001202EE
:0407FA00A305010A48
:021FFE00D40FFE
:00000001FF
