:1000000040308400553008206B2A04068001840AA1
:100010000406031D05286400003482075634423468
:100020005834453431347834203446346C346134B7
:1000300073346834203446345734203476343134C1
:080040002E3430343234003458
:1002C2003F30831687001830850083120800003003
:1002D200C82101307E21A5307E2156087E210515D8
:1002E20072298312051157307E2100307E21C6000B
:1002F2000515C61F7229460808008312D40008306B
:10030200C700D41F862905148729051085140310F8
:10031200D40D8510071A5414C70B822954080800FB
:100322000430831285000830870038308316850038
:1003320034308700831205081030831696000B10A4
:100342008B15630000009601831205080B108B11B8
:1003520008003F30831687008500C73081008B017B
:100362008C0183128C0183169101950183129A01EB
:100372009B018316960104308312850008308700A2
:1003820038308316850034308700831208008312C8
:10039200D1000511CD00CE01CD0ECE0EF030CE052E
:1003A2004D080F39CE04F030CD0544088312D20037
:1003B200D3010310D20DD30D5208CD045308CE043D
:1003C20082307E214E087E214D087E2100307E291A
:1003D2008312C01C0800C20EC20DC20DC030C2057D
:1003E200C20AFC30C3054308303A031DFB29420808
:1003F2001022FD294208C8214308303A0030031D6B
:10040200062A7E21C2003922092A3922C2007E210F
:10041200C20803190E2A401DFD29051572298312EF
:10042200D1000511CD00CE01CD0ECE0EF030CE059D
:100432004D080F39CE04F030CD0544088312D200A6
:10044200D3010310D20DD30D5208CD045308CE04AC
:1004520068307E214E087E214D087E2100307E21AB
:1004620000307E2100307E2100307E2100307E2946
:100472008312D1000830C700511C412A0930422A98
:10048200083087000310D10C071D492A401D4B2A52
:1004920040150034871C452A0718D11738308316B7
:1004A20085003C3087008312C019592A48085A2A0D
:1004B200FF30C600C60B5B2A3F3083168700183018
:1004C20085008312071D672A8718622AC70B3D2AF7
:1004D2005108080070308312CB001730CC00FF3077
:1004E200CB07031CCC034C084B04FF30031D712ABD
:1004F200C1004014AA21C401401CF22A40107221FA
:10050200C3003C30C3054308143A031D8A2A033052
:100512008F2A43081C3A031D912A0F30D500932AD3
:10052200D501D50A0030102200307E21C2000030F1
:100532007E21C300420BA12A4308A53A0319A32A2C
:10054200D601A62A00307E21D6000515410FBA2A0F
:10055200560E0F3956055505C200C301B32AC30A08
:100562000310C20CC2080319BA2A421CB02A43085B
:10057200C100410A0319F02AC10EC10DC10DC030DC
:10058200C1050230C1078711410810228715E730E3
:10059200C5007E30C9000130CA00FF30C100C7016A
:1005A200C70BD12A0830C700851487108510071E93
:1005B200DC2A0714DD2A07108714C70BD52AC508C1
:1005C200031DE72AC9080319CA03C903C50BD32AA5
:1005D2004A084904031DD32A8710071005159121E3
:1005E2007B2A6121FF30C800C01540104011071D51
:1005F200F52A53303922C300401D04230719FF2A6C
:1006020040187B2AF52A8312C011E730C5007E30DC
:10061200C9000130CA0043080339C2008312CF0067
:100622000130FC000030FD01CF0A1A2B0310FC0D33
:10063200FD0DCF0B172B5608FC05FD015508FC05D7
:10064200FD017D087C040319282BC014D52BC01092
:10065200D52B40140800550839225608392AC015EE
:1006620000303922C200401DC80008000130392282
:10067200C20100308A00C20A42030D203922401909
:10068200080016304202031808003A2BC01C08006A
:10069200C20EC20DC20DC030C2050230C2074208EE
:1006A200102200307E213922C508031D5C2BC908A7
:1006B2000319CA03C903C50B622B4A08490403196B
:1006C200642B401D522B051508001130CF00420843
:1006D200FC00FC0A6E2B0310CF0DFC0B6C2B4F0998
:1006E200D60568214308203A03190800C20EC20D3C
:1006F200C20DC030C2050230C207CB01CC014C088A
:100702004B04031D932B051572214208C821C40A0C
:1007120044080739031D8F2BC401C20A0830CB00DD
:100722000130CC00003039227E21CB080319CC03E2
:10073200CB03C508031DA12BC9080319CA03C903AA
:10074200C50BA72B4A0849040319A92B401D802B6E
:100752000515C4017221401908000130CF00430879
:100762000339FC00FC0AB72B0310CF0DFC0BB52B91
:100772004F08D6046829C01C08004208C100401472
:100782000800C01C08001030CF004208FC00FC0A20
:10079200CC2B0310CF0DFC0BCA2B4F08D0005608F0
:1007A2000F395004D60068294308FC39FE00FF01C6
:1007B2007F08003A031D08007E08103A03192A2B0D
:1007C200043A03192C2B0C3A0319372B043A031958
:1007D200302B3C3A0319662B043A0319BC2B0C3A12
:1007E2000319C22B183A0319E929043A0319E92912
:0E07F200743A0319472B043A031D0800662BC6
:02400E00C43FAD
:00000001FF
